{
  "_format": "hh-sol-artifact-1",
  "contractName": "ServiceCompletion",
  "sourceName": "contracts/contrato1.sol",
  "abi": [
    {
      "anonymous": false,
      "inputs": [
        {
          "indexed": false,
          "internalType": "string",
          "name": "message",
          "type": "string"
        }
      ],
      "name": "ServiceCompleted",
      "type": "event"
    },
    {
      "inputs": [
        {
          "internalType": "string",
          "name": "service",
          "type": "string"
        },
        {
          "internalType": "string",
          "name": "company",
          "type": "string"
        },
        {
          "internalType": "string",
          "name": "amount",
          "type": "string"
        }
      ],
      "name": "completeService",
      "outputs": [
        {
          "internalType": "string",
          "name": "",
          "type": "string"
        }
      ],
      "stateMutability": "nonpayable",
      "type": "function"
    }
  ],
  "bytecode": "0x6080604052348015600f57600080fd5b506105938061001f6000396000f3fe608060405234801561001057600080fd5b506004361061002b5760003560e01c80630925c6c414610030575b600080fd5b61004a60048036038101906100459190610226565b610060565b604051610057919061034c565b60405180910390f35b6060600084838560405160200161007993929190610500565b60405160208183030381529060405290507f178a3df8b4b5957c005773a1885d2e7db56cbda4de3538f44be6ef694173fd94816040516100b9919061034c565b60405180910390a1809150509392505050565b6000604051905090565b600080fd5b600080fd5b600080fd5b600080fd5b6000601f19601f8301169050919050565b7f4e487b7100000000000000000000000000000000000000000000000000000000600052604160045260246000fd5b610133826100ea565b810181811067ffffffffffffffff82111715610152576101516100fb565b5b80604052505050565b60006101656100cc565b9050610171828261012a565b919050565b600067ffffffffffffffff821115610191576101906100fb565b5b61019a826100ea565b9050602081019050919050565b82818337600083830152505050565b60006101c96101c484610176565b61015b565b9050828152602081018484840111156101e5576101e46100e5565b5b6101f08482856101a7565b509392505050565b600082601f83011261020d5761020c6100e0565b5b813561021d8482602086016101b6565b91505092915050565b60008060006060848603121561023f5761023e6100d6565b5b600084013567ffffffffffffffff81111561025d5761025c6100db565b5b610269868287016101f8565b935050602084013567ffffffffffffffff81111561028a576102896100db565b5b610296868287016101f8565b925050604084013567ffffffffffffffff8111156102b7576102b66100db565b5b6102c3868287016101f8565b9150509250925092565b600081519050919050565b600082825260208201905092915050565b60005b838110156103075780820151818401526020810190506102ec565b60008484015250505050565b600061031e826102cd565b61032881856102d8565b93506103388185602086016102e9565b610341816100ea565b840191505092915050565b600060208201905081810360008301526103668184610313565b905092915050565b600081905092915050565b7f456c20736572766963696f202700000000000000000000000000000000000000600082015250565b60006103af600d8361036e565b91506103ba82610379565b600d82019050919050565b60006103d0826102cd565b6103da818561036e565b93506103ea8185602086016102e9565b80840191505092915050565b7f27206861207369646f20636f6d706c657461646f2e205365206861207061676160008201527f646f200000000000000000000000000000000000000000000000000000000000602082015250565b600061045260238361036e565b915061045d826103f6565b602382019050919050565b7f20555344542061206c6120656d70726573612027000000000000000000000000600082015250565b600061049e60148361036e565b91506104a982610468565b601482019050919050565b7f272e000000000000000000000000000000000000000000000000000000000000600082015250565b60006104ea60028361036e565b91506104f5826104b4565b600282019050919050565b600061050b826103a2565b915061051782866103c5565b915061052282610445565b915061052e82856103c5565b915061053982610491565b915061054582846103c5565b9150610550826104dd565b915081905094935050505056fea2646970667358221220d913f6a8560031db7b5bbe14d1045ff7573e0747f26ba0fc7ce7b9037d6cd4aa64736f6c634300081b0033",
  "linkReferences": {},
  "deployedLinkReferences": {}
}